{
  "abi": [
    {
      "inputs": [
        {
          "internalType": "contract IERC721",
          "name": "_LadyLilethCollection",
          "type": "address"
        },
        {
          "internalType": "contract IViseCoin",
          "name": "_ViseCoin",
          "type": "address"
        }
      ],
      "stateMutability": "nonpayable",
      "type": "constructor"
    },
    {
      "anonymous": false,
      "inputs": [
        {
          "indexed": true,
          "internalType": "address",
          "name": "previousOwner",
          "type": "address"
        },
        {
          "indexed": true,
          "internalType": "address",
          "name": "newOwner",
          "type": "address"
        }
      ],
      "name": "OwnershipTransferred",
      "type": "event"
    },
    {
      "inputs": [],
      "name": "LadyLilethCollection",
      "outputs": [
        {
          "internalType": "contract IERC721",
          "name": "",
          "type": "address"
        }
      ],
      "stateMutability": "view",
      "type": "function"
    },
    {
      "inputs": [],
      "name": "ViseCoin",
      "outputs": [
        {
          "internalType": "contract IViseCoin",
          "name": "",
          "type": "address"
        }
      ],
      "stateMutability": "view",
      "type": "function"
    },
    {
      "inputs": [],
      "name": "claimRewards",
      "outputs": [],
      "stateMutability": "nonpayable",
      "type": "function"
    },
    {
      "inputs": [],
      "name": "owner",
      "outputs": [
        {
          "internalType": "address",
          "name": "",
          "type": "address"
        }
      ],
      "stateMutability": "view",
      "type": "function"
    },
    {
      "inputs": [],
      "name": "paused",
      "outputs": [
        {
          "internalType": "bool",
          "name": "",
          "type": "bool"
        }
      ],
      "stateMutability": "view",
      "type": "function"
    },
    {
      "inputs": [],
      "name": "renounceOwnership",
      "outputs": [],
      "stateMutability": "nonpayable",
      "type": "function"
    },
    {
      "inputs": [
        {
          "internalType": "bool",
          "name": "_state",
          "type": "bool"
        }
      ],
      "name": "setPaused",
      "outputs": [],
      "stateMutability": "nonpayable",
      "type": "function"
    },
    {
      "inputs": [
        {
          "internalType": "uint256[]",
          "name": "_tokenIds",
          "type": "uint256[]"
        }
      ],
      "name": "stake",
      "outputs": [],
      "stateMutability": "nonpayable",
      "type": "function"
    },
    {
      "inputs": [
        {
          "internalType": "uint256",
          "name": "",
          "type": "uint256"
        }
      ],
      "name": "stakerAddress",
      "outputs": [
        {
          "internalType": "address",
          "name": "",
          "type": "address"
        }
      ],
      "stateMutability": "view",
      "type": "function"
    },
    {
      "inputs": [
        {
          "internalType": "address",
          "name": "",
          "type": "address"
        }
      ],
      "name": "stakers",
      "outputs": [
        {
          "internalType": "uint256",
          "name": "amountStaked",
          "type": "uint256"
        },
        {
          "internalType": "uint256",
          "name": "timeOfLastUpdate",
          "type": "uint256"
        },
        {
          "internalType": "uint256",
          "name": "unclaimedRewards",
          "type": "uint256"
        }
      ],
      "stateMutability": "view",
      "type": "function"
    },
    {
      "inputs": [
        {
          "internalType": "address",
          "name": "_user",
          "type": "address"
        }
      ],
      "name": "tokenIdsStaked",
      "outputs": [
        {
          "internalType": "uint256[]",
          "name": "_tokenIdsStaked",
          "type": "uint256[]"
        }
      ],
      "stateMutability": "view",
      "type": "function"
    },
    {
      "inputs": [
        {
          "internalType": "address",
          "name": "newOwner",
          "type": "address"
        }
      ],
      "name": "transferOwnership",
      "outputs": [],
      "stateMutability": "nonpayable",
      "type": "function"
    },
    {
      "inputs": [
        {
          "internalType": "address",
          "name": "_user",
          "type": "address"
        }
      ],
      "name": "userStakeInfo",
      "outputs": [
        {
          "internalType": "uint256",
          "name": "_amountStaked",
          "type": "uint256"
        },
        {
          "internalType": "uint256",
          "name": "_availableRewards",
          "type": "uint256"
        },
        {
          "internalType": "uint256[]",
          "name": "_tokenIdsStaked",
          "type": "uint256[]"
        }
      ],
      "stateMutability": "view",
      "type": "function"
    },
    {
      "inputs": [
        {
          "internalType": "uint256[]",
          "name": "_tokenIds",
          "type": "uint256[]"
        }
      ],
      "name": "withdraw",
      "outputs": [],
      "stateMutability": "nonpayable",
      "type": "function"
    }
  ],
  "bytecode": "6080604052620186a06004556005805460ff1916905534801561002157600080fd5b506040516112ed3803806112ed833981016040819052610040916100ce565b600080546001600160a01b031916339081178255604051909182917f8be0079c531659141344cd1fd0a4f28419497f9722a3daafe3b4186f6b6457e0908290a35060018055600380546001600160a01b039384166001600160a01b03199182161790915560028054929093169116179055610108565b6001600160a01b03811681146100cb57600080fd5b50565b600080604083850312156100e157600080fd5b82516100ec816100b6565b60208401519092506100fd816100b6565b809150509250929050565b6111d6806101176000396000f3fe608060405234801561001057600080fd5b50600436106100ea5760003560e01c80638da5cb5b1161008c578063983d95ce11610066578063983d95ce1461021d5780639d3590bf14610230578063f2fde38b14610243578063f53d865b1461025657600080fd5b80638da5cb5b146101965780639168ae72146101a757806394067045146101f457600080fd5b8063372500ab116100c8578063372500ab146101475780634ead43271461014f5780635c975abb14610171578063715018a61461018e57600080fd5b80630fbf0a93146100ef57806316c38b3c146101045780633267e63014610117575b600080fd5b6101026100fd366004610e8f565b610276565b005b610102610112366004610f4d565b6105dc565b60035461012a906001600160a01b031681565b6040516001600160a01b0390911681526020015b60405180910390f35b610102610619565b61016261015d366004610f87565b610747565b60405161013e93929190610fdf565b60055461017e9060ff1681565b604051901515815260200161013e565b6101026107e7565b6000546001600160a01b031661012a565b6101d96101b5366004610f87565b60066020526000908152604090206001810154600282015460039092015490919083565b6040805193845260208401929092529082015260600161013e565b61012a610202366004611007565b6007602052600090815260409020546001600160a01b031681565b61010261022b366004610e8f565b61085b565b60025461012a906001600160a01b031681565b610102610251366004610f87565b610c22565b610269610264366004610f87565b610d0c565b60405161013e9190611020565b600260015414156102a25760405162461bcd60e51b815260040161029990611033565b60405180910390fd5b600260015560055460ff16156102fa5760405162461bcd60e51b815260206004820152601d60248201527f54686520636f6e747261637420686173206265656e20706175736564210000006044820152606401610299565b336000908152600660205260409020600101541561034b57600061031d33610d78565b33600090815260066020526040812060030180549293508392909190610344908490611080565b9091555050505b60005b81518110156105be57600354825133916001600160a01b031690636352211e9085908590811061038057610380611098565b60200260200101516040518263ffffffff1660e01b81526004016103a691815260200190565b60206040518083038186803b1580156103be57600080fd5b505afa1580156103d2573d6000803e3d6000fd5b505050506040513d601f19601f820116820180604052508101906103f691906110ae565b6001600160a01b0316146104565760405162461bcd60e51b815260206004820152602160248201527f43616e2774207374616b6520746f6b656e7320796f7520646f6e2774206f776e6044820152602160f81b6064820152608401610299565b60035482516001600160a01b03909116906323b872dd903390309086908690811061048357610483611098565b60209081029190910101516040516001600160e01b031960e086901b1681526001600160a01b0393841660048201529290911660248301526044820152606401600060405180830381600087803b1580156104dd57600080fd5b505af11580156104f1573d6000803e3d6000fd5b505033600090815260066020526040902084519092508491508390811061051a5761051a611098565b60209081029190910181015182546001818101855560009485528385209091019190915533835260069091526040822001805491610557836110cb565b9190505550336007600084848151811061057357610573611098565b6020026020010151815260200190815260200160002060006101000a8154816001600160a01b0302191690836001600160a01b03160217905550806105b7906110cb565b905061034e565b50503360009081526006602052604090204260029091015560018055565b6000546001600160a01b031633146106065760405162461bcd60e51b8152600401610299906110e6565b6005805460ff1916911515919091179055565b6002600154141561063c5760405162461bcd60e51b815260040161029990611033565b600260015533600081815260066020526040812060030154909161065f90610d78565b6106699190611080565b9050600081116106bb5760405162461bcd60e51b815260206004820152601c60248201527f596f752068617665206e6f207265776172647320746f20636c61696d000000006044820152606401610299565b3360008181526006602052604080822042600280830191909155600390910192909255905490516340c10f1960e01b81526004810192909252602482018390526001600160a01b0316906340c10f1990604401600060405180830381600087803b15801561072857600080fd5b505af115801561073c573d6000803e3d6000fd5b505060018055505050565b6001600160a01b038116600090815260066020526040812060010154819060609061077185610dd9565b6001600160a01b03861660009081526006602090815260409182902080548351818402810184019094528084529092918391908301828280156107d357602002820191906000526020600020905b8154815260200190600101908083116107bf575b505050505090509250925092509193909250565b6000546001600160a01b031633146108115760405162461bcd60e51b8152600401610299906110e6565b600080546040516001600160a01b03909116907f8be0079c531659141344cd1fd0a4f28419497f9722a3daafe3b4186f6b6457e0908390a3600080546001600160a01b0319169055565b6002600154141561087e5760405162461bcd60e51b815260040161029990611033565b6002600190815533600090815260066020526040902001546108e25760405162461bcd60e51b815260206004820152601960248201527f596f752068617665206e6f20746f6b656e73207374616b6564000000000000006044820152606401610299565b60006108ed33610d78565b33600090815260066020526040812060030180549293508392909190610914908490611080565b90915550600090505b8251811015610c0357336001600160a01b03166007600085848151811061094657610946611098565b6020908102919091018101518252810191909152604001600020546001600160a01b0316146109c65760405162461bcd60e51b815260206004820152602660248201527f596f752063616e206f6e6c7920776968746472617720796f7572206f776e20746044820152656f6b656e732160d01b6064820152608401610299565b6000600760008584815181106109de576109de611098565b6020908102919091018101518252818101929092526040908101600090812080546001600160a01b0319166001600160a01b03959095169490941790935533835260069091528120600101805491610a358361111b565b919050555060005b33600090815260066020526040902054811015610b5257838281518110610a6657610a66611098565b60209081029190910181015133600090815260069092526040909120805483908110610a9457610a94611098565b90600052602060002001541415610b42573360009081526006602052604090208054610ac290600190611132565b81548110610ad257610ad2611098565b600091825260208083209091015433835260069091526040909120805483908110610aff57610aff611098565b6000918252602080832090910192909255338152600690915260409020805480610b2b57610b2b611149565b600190038181906000526020600020016000905590555b610b4b816110cb565b9050610a3d565b5060035483516001600160a01b03909116906323b872dd9030903390879086908110610b8057610b80611098565b60209081029190910101516040516001600160e01b031960e086901b1681526001600160a01b0393841660048201529290911660248301526044820152606401600060405180830381600087803b158015610bda57600080fd5b505af1158015610bee573d6000803e3d6000fd5b5050505080610bfc906110cb565b905061091d565b5050336000908152600660205260409020426002909101555060018055565b6000546001600160a01b03163314610c4c5760405162461bcd60e51b8152600401610299906110e6565b6001600160a01b038116610cb15760405162461bcd60e51b815260206004820152602660248201527f4f776e61626c653a206e6577206f776e657220697320746865207a65726f206160448201526564647265737360d01b6064820152608401610299565b600080546040516001600160a01b03808516939216917f8be0079c531659141344cd1fd0a4f28419497f9722a3daafe3b4186f6b6457e091a3600080546001600160a01b0319166001600160a01b0392909216919091179055565b6001600160a01b038116600090815260066020908152604091829020805483518184028101840190945280845260609392830182828015610d6c57602002820191906000526020600020905b815481526020019060010190808311610d58575b50505050509050919050565b60045433600090815260066020526040808220600101546001600160a01b0385168352908220600201549192610e1092909190610db59042611132565b610dbf919061115f565b610dc9919061115f565b610dd3919061117e565b92915050565b6001600160a01b038116600090815260066020526040812060010154610e415760405162461bcd60e51b815260206004820152601960248201527f5573657220686173206e6f20746f6b656e73207374616b6564000000000000006044820152606401610299565b6000610e4c83610d78565b6001600160a01b038416600090815260066020526040902060030154610e729190611080565b9392505050565b634e487b7160e01b600052604160045260246000fd5b60006020808385031215610ea257600080fd5b823567ffffffffffffffff80821115610eba57600080fd5b818501915085601f830112610ece57600080fd5b813581811115610ee057610ee0610e79565b8060051b604051601f19603f83011681018181108582111715610f0557610f05610e79565b604052918252848201925083810185019188831115610f2357600080fd5b938501935b82851015610f4157843584529385019392850192610f28565b98975050505050505050565b600060208284031215610f5f57600080fd5b81358015158114610e7257600080fd5b6001600160a01b0381168114610f8457600080fd5b50565b600060208284031215610f9957600080fd5b8135610e7281610f6f565b600081518084526020808501945080840160005b83811015610fd457815187529582019590820190600101610fb8565b509495945050505050565b838152826020820152606060408201526000610ffe6060830184610fa4565b95945050505050565b60006020828403121561101957600080fd5b5035919050565b602081526000610e726020830184610fa4565b6020808252601f908201527f5265656e7472616e637947756172643a207265656e7472616e742063616c6c00604082015260600190565b634e487b7160e01b600052601160045260246000fd5b600082198211156110935761109361106a565b500190565b634e487b7160e01b600052603260045260246000fd5b6000602082840312156110c057600080fd5b8151610e7281610f6f565b60006000198214156110df576110df61106a565b5060010190565b6020808252818101527f4f776e61626c653a2063616c6c6572206973206e6f7420746865206f776e6572604082015260600190565b60008161112a5761112a61106a565b506000190190565b6000828210156111445761114461106a565b500390565b634e487b7160e01b600052603160045260246000fd5b60008160001904831182151516156111795761117961106a565b500290565b60008261119b57634e487b7160e01b600052601260045260246000fd5b50049056fea2646970667358221220f6bada74fd31c80b7cdfde104c8578e85fa32b96b6cc9a874e670bc14b6f27e964736f6c63430008090033",
  "bytecodeSha1": "e9ff6bc482a47d44a16c2cb9be369f4390d56eda",
  "compiler": {
    "evm_version": "istanbul",
    "optimizer": {
      "enabled": true,
      "runs": 200
    },
    "version": "0.8.9+commit.e5eed63a"
  },
  "contractName": "ViseCoinStaking",
  "language": "Solidity",
  "natspec": {
    "kind": "dev",
    "methods": {
      "owner()": {
        "details": "Returns the address of the current owner."
      },
      "renounceOwnership()": {
        "details": "Leaves the contract without owner. It will not be possible to call `onlyOwner` functions anymore. Can only be called by the current owner. NOTE: Renouncing ownership will leave the contract without an owner, thereby removing any functionality that is only available to the owner."
      },
      "transferOwnership(address)": {
        "details": "Transfers ownership of the contract to a new account (`newOwner`). Can only be called by the current owner."
      }
    },
    "version": 1
  },
  "opcodes": "PUSH1 0x80 PUSH1 0x40 MSTORE CALLVALUE DUP1 ISZERO PUSH2 0x10 JUMPI PUSH1 0x0 DUP1 REVERT JUMPDEST POP PUSH1 0x4 CALLDATASIZE LT PUSH2 0xEA JUMPI PUSH1 0x0 CALLDATALOAD PUSH1 0xE0 SHR DUP1 PUSH4 0x8DA5CB5B GT PUSH2 0x8C JUMPI DUP1 PUSH4 0x983D95CE GT PUSH2 0x66 JUMPI DUP1 PUSH4 0x983D95CE EQ PUSH2 0x21D JUMPI DUP1 PUSH4 0x9D3590BF EQ PUSH2 0x230 JUMPI DUP1 PUSH4 0xF2FDE38B EQ PUSH2 0x243 JUMPI DUP1 PUSH4 0xF53D865B EQ PUSH2 0x256 JUMPI PUSH1 0x0 DUP1 REVERT JUMPDEST DUP1 PUSH4 0x8DA5CB5B EQ PUSH2 0x196 JUMPI DUP1 PUSH4 0x9168AE72 EQ PUSH2 0x1A7 JUMPI DUP1 PUSH4 0x94067045 EQ PUSH2 0x1F4 JUMPI PUSH1 0x0 DUP1 REVERT JUMPDEST DUP1 PUSH4 0x372500AB GT PUSH2 0xC8 JUMPI DUP1 PUSH4 0x372500AB EQ PUSH2 0x147 JUMPI DUP1 PUSH4 0x4EAD4327 EQ PUSH2 0x14F JUMPI DUP1 PUSH4 0x5C975ABB EQ PUSH2 0x171 JUMPI DUP1 PUSH4 0x715018A6 EQ PUSH2 0x18E JUMPI PUSH1 0x0 DUP1 REVERT JUMPDEST DUP1 PUSH4 0xFBF0A93 EQ PUSH2 0xEF JUMPI DUP1 PUSH4 0x16C38B3C EQ PUSH2 0x104 JUMPI DUP1 PUSH4 0x3267E630 EQ PUSH2 0x117 JUMPI JUMPDEST PUSH1 0x0 DUP1 REVERT JUMPDEST PUSH2 0x102 PUSH2 0xFD CALLDATASIZE PUSH1 0x4 PUSH2 0xE8F JUMP JUMPDEST PUSH2 0x276 JUMP JUMPDEST STOP JUMPDEST PUSH2 0x102 PUSH2 0x112 CALLDATASIZE PUSH1 0x4 PUSH2 0xF4D JUMP JUMPDEST PUSH2 0x5DC JUMP JUMPDEST PUSH1 0x3 SLOAD PUSH2 0x12A SWAP1 PUSH1 0x1 PUSH1 0x1 PUSH1 0xA0 SHL SUB AND DUP2 JUMP JUMPDEST PUSH1 0x40 MLOAD PUSH1 0x1 PUSH1 0x1 PUSH1 0xA0 SHL SUB SWAP1 SWAP2 AND DUP2 MSTORE PUSH1 0x20 ADD JUMPDEST PUSH1 0x40 MLOAD DUP1 SWAP2 SUB SWAP1 RETURN JUMPDEST PUSH2 0x102 PUSH2 0x619 JUMP JUMPDEST PUSH2 0x162 PUSH2 0x15D CALLDATASIZE PUSH1 0x4 PUSH2 0xF87 JUMP JUMPDEST PUSH2 0x747 JUMP JUMPDEST PUSH1 0x40 MLOAD PUSH2 0x13E SWAP4 SWAP3 SWAP2 SWAP1 PUSH2 0xFDF JUMP JUMPDEST PUSH1 0x5 SLOAD PUSH2 0x17E SWAP1 PUSH1 0xFF AND DUP2 JUMP JUMPDEST PUSH1 0x40 MLOAD SWAP1 ISZERO ISZERO DUP2 MSTORE PUSH1 0x20 ADD PUSH2 0x13E JUMP JUMPDEST PUSH2 0x102 PUSH2 0x7E7 JUMP JUMPDEST PUSH1 0x0 SLOAD PUSH1 0x1 PUSH1 0x1 PUSH1 0xA0 SHL SUB AND PUSH2 0x12A JUMP JUMPDEST PUSH2 0x1D9 PUSH2 0x1B5 CALLDATASIZE PUSH1 0x4 PUSH2 0xF87 JUMP JUMPDEST PUSH1 0x6 PUSH1 0x20 MSTORE PUSH1 0x0 SWAP1 DUP2 MSTORE PUSH1 0x40 SWAP1 KECCAK256 PUSH1 0x1 DUP2 ADD SLOAD PUSH1 0x2 DUP3 ADD SLOAD PUSH1 0x3 SWAP1 SWAP3 ADD SLOAD SWAP1 SWAP2 SWAP1 DUP4 JUMP JUMPDEST PUSH1 0x40 DUP1 MLOAD SWAP4 DUP5 MSTORE PUSH1 0x20 DUP5 ADD SWAP3 SWAP1 SWAP3 MSTORE SWAP1 DUP3 ADD MSTORE PUSH1 0x60 ADD PUSH2 0x13E JUMP JUMPDEST PUSH2 0x12A PUSH2 0x202 CALLDATASIZE PUSH1 0x4 PUSH2 0x1007 JUMP JUMPDEST PUSH1 0x7 PUSH1 0x20 MSTORE PUSH1 0x0 SWAP1 DUP2 MSTORE PUSH1 0x40 SWAP1 KECCAK256 SLOAD PUSH1 0x1 PUSH1 0x1 PUSH1 0xA0 SHL SUB AND DUP2 JUMP JUMPDEST PUSH2 0x102 PUSH2 0x22B CALLDATASIZE PUSH1 0x4 PUSH2 0xE8F JUMP JUMPDEST PUSH2 0x85B JUMP JUMPDEST PUSH1 0x2 SLOAD PUSH2 0x12A SWAP1 PUSH1 0x1 PUSH1 0x1 PUSH1 0xA0 SHL SUB AND DUP2 JUMP JUMPDEST PUSH2 0x102 PUSH2 0x251 CALLDATASIZE PUSH1 0x4 PUSH2 0xF87 JUMP JUMPDEST PUSH2 0xC22 JUMP JUMPDEST PUSH2 0x269 PUSH2 0x264 CALLDATASIZE PUSH1 0x4 PUSH2 0xF87 JUMP JUMPDEST PUSH2 0xD0C JUMP JUMPDEST PUSH1 0x40 MLOAD PUSH2 0x13E SWAP2 SWAP1 PUSH2 0x1020 JUMP JUMPDEST PUSH1 0x2 PUSH1 0x1 SLOAD EQ ISZERO PUSH2 0x2A2 JUMPI PUSH1 0x40 MLOAD PUSH3 0x461BCD PUSH1 0xE5 SHL DUP2 MSTORE PUSH1 0x4 ADD PUSH2 0x299 SWAP1 PUSH2 0x1033 JUMP JUMPDEST PUSH1 0x40 MLOAD DUP1 SWAP2 SUB SWAP1 REVERT JUMPDEST PUSH1 0x2 PUSH1 0x1 SSTORE PUSH1 0x5 SLOAD PUSH1 0xFF AND ISZERO PUSH2 0x2FA JUMPI PUSH1 0x40 MLOAD PUSH3 0x461BCD PUSH1 0xE5 SHL DUP2 MSTORE PUSH1 0x20 PUSH1 0x4 DUP3 ADD MSTORE PUSH1 0x1D PUSH1 0x24 DUP3 ADD MSTORE PUSH32 0x54686520636F6E747261637420686173206265656E2070617573656421000000 PUSH1 0x44 DUP3 ADD MSTORE PUSH1 0x64 ADD PUSH2 0x299 JUMP JUMPDEST CALLER PUSH1 0x0 SWAP1 DUP2 MSTORE PUSH1 0x6 PUSH1 0x20 MSTORE PUSH1 0x40 SWAP1 KECCAK256 PUSH1 0x1 ADD SLOAD ISZERO PUSH2 0x34B JUMPI PUSH1 0x0 PUSH2 0x31D CALLER PUSH2 0xD78 JUMP JUMPDEST CALLER PUSH1 0x0 SWAP1 DUP2 MSTORE PUSH1 0x6 PUSH1 0x20 MSTORE PUSH1 0x40 DUP2 KECCAK256 PUSH1 0x3 ADD DUP1 SLOAD SWAP3 SWAP4 POP DUP4 SWAP3 SWAP1 SWAP2 SWAP1 PUSH2 0x344 SWAP1 DUP5 SWAP1 PUSH2 0x1080 JUMP JUMPDEST SWAP1 SWAP2 SSTORE POP POP POP JUMPDEST PUSH1 0x0 JUMPDEST DUP2 MLOAD DUP2 LT ISZERO PUSH2 0x5BE JUMPI PUSH1 0x3 SLOAD DUP3 MLOAD CALLER SWAP2 PUSH1 0x1 PUSH1 0x1 PUSH1 0xA0 SHL SUB AND SWAP1 PUSH4 0x6352211E SWAP1 DUP6 SWAP1 DUP6 SWAP1 DUP2 LT PUSH2 0x380 JUMPI PUSH2 0x380 PUSH2 0x1098 JUMP JUMPDEST PUSH1 0x20 MUL PUSH1 0x20 ADD ADD MLOAD PUSH1 0x40 MLOAD DUP3 PUSH4 0xFFFFFFFF AND PUSH1 0xE0 SHL DUP2 MSTORE PUSH1 0x4 ADD PUSH2 0x3A6 SWAP2 DUP2 MSTORE PUSH1 0x20 ADD SWAP1 JUMP JUMPDEST PUSH1 0x20 PUSH1 0x40 MLOAD DUP1 DUP4 SUB DUP2 DUP7 DUP1 EXTCODESIZE ISZERO DUP1 ISZERO PUSH2 0x3BE JUMPI PUSH1 0x0 DUP1 REVERT JUMPDEST POP GAS STATICCALL ISZERO DUP1 ISZERO PUSH2 0x3D2 JUMPI RETURNDATASIZE PUSH1 0x0 DUP1 RETURNDATACOPY RETURNDATASIZE PUSH1 0x0 REVERT JUMPDEST POP POP POP POP PUSH1 0x40 MLOAD RETURNDATASIZE PUSH1 0x1F NOT PUSH1 0x1F DUP3 ADD AND DUP3 ADD DUP1 PUSH1 0x40 MSTORE POP DUP2 ADD SWAP1 PUSH2 0x3F6 SWAP2 SWAP1 PUSH2 0x10AE JUMP JUMPDEST PUSH1 0x1 PUSH1 0x1 PUSH1 0xA0 SHL SUB AND EQ PUSH2 0x456 JUMPI PUSH1 0x40 MLOAD PUSH3 0x461BCD PUSH1 0xE5 SHL DUP2 MSTORE PUSH1 0x20 PUSH1 0x4 DUP3 ADD MSTORE PUSH1 0x21 PUSH1 0x24 DUP3 ADD MSTORE PUSH32 0x43616E2774207374616B6520746F6B656E7320796F7520646F6E2774206F776E PUSH1 0x44 DUP3 ADD MSTORE PUSH1 0x21 PUSH1 0xF8 SHL PUSH1 0x64 DUP3 ADD MSTORE PUSH1 0x84 ADD PUSH2 0x299 JUMP JUMPDEST PUSH1 0x3 SLOAD DUP3 MLOAD PUSH1 0x1 PUSH1 0x1 PUSH1 0xA0 SHL SUB SWAP1 SWAP2 AND SWAP1 PUSH4 0x23B872DD SWAP1 CALLER SWAP1 ADDRESS SWAP1 DUP7 SWAP1 DUP7 SWAP1 DUP2 LT PUSH2 0x483 JUMPI PUSH2 0x483 PUSH2 0x1098 JUMP JUMPDEST PUSH1 0x20 SWAP1 DUP2 MUL SWAP2 SWAP1 SWAP2 ADD ADD MLOAD PUSH1 0x40 MLOAD PUSH1 0x1 PUSH1 0x1 PUSH1 0xE0 SHL SUB NOT PUSH1 0xE0 DUP7 SWAP1 SHL AND DUP2 MSTORE PUSH1 0x1 PUSH1 0x1 PUSH1 0xA0 SHL SUB SWAP4 DUP5 AND PUSH1 0x4 DUP3 ADD MSTORE SWAP3 SWAP1 SWAP2 AND PUSH1 0x24 DUP4 ADD MSTORE PUSH1 0x44 DUP3 ADD MSTORE PUSH1 0x64 ADD PUSH1 0x0 PUSH1 0x40 MLOAD DUP1 DUP4 SUB DUP2 PUSH1 0x0 DUP8 DUP1 EXTCODESIZE ISZERO DUP1 ISZERO PUSH2 0x4DD JUMPI PUSH1 0x0 DUP1 REVERT JUMPDEST POP GAS CALL ISZERO DUP1 ISZERO PUSH2 0x4F1 JUMPI RETURNDATASIZE PUSH1 0x0 DUP1 RETURNDATACOPY RETURNDATASIZE PUSH1 0x0 REVERT JUMPDEST POP POP CALLER PUSH1 0x0 SWAP1 DUP2 MSTORE PUSH1 0x6 PUSH1 0x20 MSTORE PUSH1 0x40 SWAP1 KECCAK256 DUP5 MLOAD SWAP1 SWAP3 POP DUP5 SWAP2 POP DUP4 SWAP1 DUP2 LT PUSH2 0x51A JUMPI PUSH2 0x51A PUSH2 0x1098 JUMP JUMPDEST PUSH1 0x20 SWAP1 DUP2 MUL SWAP2 SWAP1 SWAP2 ADD DUP2 ADD MLOAD DUP3 SLOAD PUSH1 0x1 DUP2 DUP2 ADD DUP6 SSTORE PUSH1 0x0 SWAP5 DUP6 MSTORE DUP4 DUP6 KECCAK256 SWAP1 SWAP2 ADD SWAP2 SWAP1 SWAP2 SSTORE CALLER DUP4 MSTORE PUSH1 0x6 SWAP1 SWAP2 MSTORE PUSH1 0x40 DUP3 KECCAK256 ADD DUP1 SLOAD SWAP2 PUSH2 0x557 DUP4 PUSH2 0x10CB JUMP JUMPDEST SWAP2 SWAP1 POP SSTORE POP CALLER PUSH1 0x7 PUSH1 0x0 DUP5 DUP5 DUP2 MLOAD DUP2 LT PUSH2 0x573 JUMPI PUSH2 0x573 PUSH2 0x1098 JUMP JUMPDEST PUSH1 0x20 MUL PUSH1 0x20 ADD ADD MLOAD DUP2 MSTORE PUSH1 0x20 ADD SWAP1 DUP2 MSTORE PUSH1 0x20 ADD PUSH1 0x0 KECCAK256 PUSH1 0x0 PUSH2 0x100 EXP DUP2 SLOAD DUP2 PUSH1 0x1 PUSH1 0x1 PUSH1 0xA0 SHL SUB MUL NOT AND SWAP1 DUP4 PUSH1 0x1 PUSH1 0x1 PUSH1 0xA0 SHL SUB AND MUL OR SWAP1 SSTORE POP DUP1 PUSH2 0x5B7 SWAP1 PUSH2 0x10CB JUMP JUMPDEST SWAP1 POP PUSH2 0x34E JUMP JUMPDEST POP POP CALLER PUSH1 0x0 SWAP1 DUP2 MSTORE PUSH1 0x6 PUSH1 0x20 MSTORE PUSH1 0x40 SWAP1 KECCAK256 TIMESTAMP PUSH1 0x2 SWAP1 SWAP2 ADD SSTORE PUSH1 0x1 DUP1 SSTORE JUMP JUMPDEST PUSH1 0x0 SLOAD PUSH1 0x1 PUSH1 0x1 PUSH1 0xA0 SHL SUB AND CALLER EQ PUSH2 0x606 JUMPI PUSH1 0x40 MLOAD PUSH3 0x461BCD PUSH1 0xE5 SHL DUP2 MSTORE PUSH1 0x4 ADD PUSH2 0x299 SWAP1 PUSH2 0x10E6 JUMP JUMPDEST PUSH1 0x5 DUP1 SLOAD PUSH1 0xFF NOT AND SWAP2 ISZERO ISZERO SWAP2 SWAP1 SWAP2 OR SWAP1 SSTORE JUMP JUMPDEST PUSH1 0x2 PUSH1 0x1 SLOAD EQ ISZERO PUSH2 0x63C JUMPI PUSH1 0x40 MLOAD PUSH3 0x461BCD PUSH1 0xE5 SHL DUP2 MSTORE PUSH1 0x4 ADD PUSH2 0x299 SWAP1 PUSH2 0x1033 JUMP JUMPDEST PUSH1 0x2 PUSH1 0x1 SSTORE CALLER PUSH1 0x0 DUP2 DUP2 MSTORE PUSH1 0x6 PUSH1 0x20 MSTORE PUSH1 0x40 DUP2 KECCAK256 PUSH1 0x3 ADD SLOAD SWAP1 SWAP2 PUSH2 0x65F SWAP1 PUSH2 0xD78 JUMP JUMPDEST PUSH2 0x669 SWAP2 SWAP1 PUSH2 0x1080 JUMP JUMPDEST SWAP1 POP PUSH1 0x0 DUP2 GT PUSH2 0x6BB JUMPI PUSH1 0x40 MLOAD PUSH3 0x461BCD PUSH1 0xE5 SHL DUP2 MSTORE PUSH1 0x20 PUSH1 0x4 DUP3 ADD MSTORE PUSH1 0x1C PUSH1 0x24 DUP3 ADD MSTORE PUSH32 0x596F752068617665206E6F207265776172647320746F20636C61696D00000000 PUSH1 0x44 DUP3 ADD MSTORE PUSH1 0x64 ADD PUSH2 0x299 JUMP JUMPDEST CALLER PUSH1 0x0 DUP2 DUP2 MSTORE PUSH1 0x6 PUSH1 0x20 MSTORE PUSH1 0x40 DUP1 DUP3 KECCAK256 TIMESTAMP PUSH1 0x2 DUP1 DUP4 ADD SWAP2 SWAP1 SWAP2 SSTORE PUSH1 0x3 SWAP1 SWAP2 ADD SWAP3 SWAP1 SWAP3 SSTORE SWAP1 SLOAD SWAP1 MLOAD PUSH4 0x40C10F19 PUSH1 0xE0 SHL DUP2 MSTORE PUSH1 0x4 DUP2 ADD SWAP3 SWAP1 SWAP3 MSTORE PUSH1 0x24 DUP3 ADD DUP4 SWAP1 MSTORE PUSH1 0x1 PUSH1 0x1 PUSH1 0xA0 SHL SUB AND SWAP1 PUSH4 0x40C10F19 SWAP1 PUSH1 0x44 ADD PUSH1 0x0 PUSH1 0x40 MLOAD DUP1 DUP4 SUB DUP2 PUSH1 0x0 DUP8 DUP1 EXTCODESIZE ISZERO DUP1 ISZERO PUSH2 0x728 JUMPI PUSH1 0x0 DUP1 REVERT JUMPDEST POP GAS CALL ISZERO DUP1 ISZERO PUSH2 0x73C JUMPI RETURNDATASIZE PUSH1 0x0 DUP1 RETURNDATACOPY RETURNDATASIZE PUSH1 0x0 REVERT JUMPDEST POP POP PUSH1 0x1 DUP1 SSTORE POP POP POP JUMP JUMPDEST PUSH1 0x1 PUSH1 0x1 PUSH1 0xA0 SHL SUB DUP2 AND PUSH1 0x0 SWAP1 DUP2 MSTORE PUSH1 0x6 PUSH1 0x20 MSTORE PUSH1 0x40 DUP2 KECCAK256 PUSH1 0x1 ADD SLOAD DUP2 SWAP1 PUSH1 0x60 SWAP1 PUSH2 0x771 DUP6 PUSH2 0xDD9 JUMP JUMPDEST PUSH1 0x1 PUSH1 0x1 PUSH1 0xA0 SHL SUB DUP7 AND PUSH1 0x0 SWAP1 DUP2 MSTORE PUSH1 0x6 PUSH1 0x20 SWAP1 DUP2 MSTORE PUSH1 0x40 SWAP2 DUP3 SWAP1 KECCAK256 DUP1 SLOAD DUP4 MLOAD DUP2 DUP5 MUL DUP2 ADD DUP5 ADD SWAP1 SWAP5 MSTORE DUP1 DUP5 MSTORE SWAP1 SWAP3 SWAP2 DUP4 SWAP2 SWAP1 DUP4 ADD DUP3 DUP3 DUP1 ISZERO PUSH2 0x7D3 JUMPI PUSH1 0x20 MUL DUP3 ADD SWAP2 SWAP1 PUSH1 0x0 MSTORE PUSH1 0x20 PUSH1 0x0 KECCAK256 SWAP1 JUMPDEST DUP2 SLOAD DUP2 MSTORE PUSH1 0x20 ADD SWAP1 PUSH1 0x1 ADD SWAP1 DUP1 DUP4 GT PUSH2 0x7BF JUMPI JUMPDEST POP POP POP POP POP SWAP1 POP SWAP3 POP SWAP3 POP SWAP3 POP SWAP2 SWAP4 SWAP1 SWAP3 POP JUMP JUMPDEST PUSH1 0x0 SLOAD PUSH1 0x1 PUSH1 0x1 PUSH1 0xA0 SHL SUB AND CALLER EQ PUSH2 0x811 JUMPI PUSH1 0x40 MLOAD PUSH3 0x461BCD PUSH1 0xE5 SHL DUP2 MSTORE PUSH1 0x4 ADD PUSH2 0x299 SWAP1 PUSH2 0x10E6 JUMP JUMPDEST PUSH1 0x0 DUP1 SLOAD PUSH1 0x40 MLOAD PUSH1 0x1 PUSH1 0x1 PUSH1 0xA0 SHL SUB SWAP1 SWAP2 AND SWAP1 PUSH32 0x8BE0079C531659141344CD1FD0A4F28419497F9722A3DAAFE3B4186F6B6457E0 SWAP1 DUP4 SWAP1 LOG3 PUSH1 0x0 DUP1 SLOAD PUSH1 0x1 PUSH1 0x1 PUSH1 0xA0 SHL SUB NOT AND SWAP1 SSTORE JUMP JUMPDEST PUSH1 0x2 PUSH1 0x1 SLOAD EQ ISZERO PUSH2 0x87E JUMPI PUSH1 0x40 MLOAD PUSH3 0x461BCD PUSH1 0xE5 SHL DUP2 MSTORE PUSH1 0x4 ADD PUSH2 0x299 SWAP1 PUSH2 0x1033 JUMP JUMPDEST PUSH1 0x2 PUSH1 0x1 SWAP1 DUP2 SSTORE CALLER PUSH1 0x0 SWAP1 DUP2 MSTORE PUSH1 0x6 PUSH1 0x20 MSTORE PUSH1 0x40 SWAP1 KECCAK256 ADD SLOAD PUSH2 0x8E2 JUMPI PUSH1 0x40 MLOAD PUSH3 0x461BCD PUSH1 0xE5 SHL DUP2 MSTORE PUSH1 0x20 PUSH1 0x4 DUP3 ADD MSTORE PUSH1 0x19 PUSH1 0x24 DUP3 ADD MSTORE PUSH32 0x596F752068617665206E6F20746F6B656E73207374616B656400000000000000 PUSH1 0x44 DUP3 ADD MSTORE PUSH1 0x64 ADD PUSH2 0x299 JUMP JUMPDEST PUSH1 0x0 PUSH2 0x8ED CALLER PUSH2 0xD78 JUMP JUMPDEST CALLER PUSH1 0x0 SWAP1 DUP2 MSTORE PUSH1 0x6 PUSH1 0x20 MSTORE PUSH1 0x40 DUP2 KECCAK256 PUSH1 0x3 ADD DUP1 SLOAD SWAP3 SWAP4 POP DUP4 SWAP3 SWAP1 SWAP2 SWAP1 PUSH2 0x914 SWAP1 DUP5 SWAP1 PUSH2 0x1080 JUMP JUMPDEST SWAP1 SWAP2 SSTORE POP PUSH1 0x0 SWAP1 POP JUMPDEST DUP3 MLOAD DUP2 LT ISZERO PUSH2 0xC03 JUMPI CALLER PUSH1 0x1 PUSH1 0x1 PUSH1 0xA0 SHL SUB AND PUSH1 0x7 PUSH1 0x0 DUP6 DUP5 DUP2 MLOAD DUP2 LT PUSH2 0x946 JUMPI PUSH2 0x946 PUSH2 0x1098 JUMP JUMPDEST PUSH1 0x20 SWAP1 DUP2 MUL SWAP2 SWAP1 SWAP2 ADD DUP2 ADD MLOAD DUP3 MSTORE DUP2 ADD SWAP2 SWAP1 SWAP2 MSTORE PUSH1 0x40 ADD PUSH1 0x0 KECCAK256 SLOAD PUSH1 0x1 PUSH1 0x1 PUSH1 0xA0 SHL SUB AND EQ PUSH2 0x9C6 JUMPI PUSH1 0x40 MLOAD PUSH3 0x461BCD PUSH1 0xE5 SHL DUP2 MSTORE PUSH1 0x20 PUSH1 0x4 DUP3 ADD MSTORE PUSH1 0x26 PUSH1 0x24 DUP3 ADD MSTORE PUSH32 0x596F752063616E206F6E6C7920776968746472617720796F7572206F776E2074 PUSH1 0x44 DUP3 ADD MSTORE PUSH6 0x6F6B656E7321 PUSH1 0xD0 SHL PUSH1 0x64 DUP3 ADD MSTORE PUSH1 0x84 ADD PUSH2 0x299 JUMP JUMPDEST PUSH1 0x0 PUSH1 0x7 PUSH1 0x0 DUP6 DUP5 DUP2 MLOAD DUP2 LT PUSH2 0x9DE JUMPI PUSH2 0x9DE PUSH2 0x1098 JUMP JUMPDEST PUSH1 0x20 SWAP1 DUP2 MUL SWAP2 SWAP1 SWAP2 ADD DUP2 ADD MLOAD DUP3 MSTORE DUP2 DUP2 ADD SWAP3 SWAP1 SWAP3 MSTORE PUSH1 0x40 SWAP1 DUP2 ADD PUSH1 0x0 SWAP1 DUP2 KECCAK256 DUP1 SLOAD PUSH1 0x1 PUSH1 0x1 PUSH1 0xA0 SHL SUB NOT AND PUSH1 0x1 PUSH1 0x1 PUSH1 0xA0 SHL SUB SWAP6 SWAP1 SWAP6 AND SWAP5 SWAP1 SWAP5 OR SWAP1 SWAP4 SSTORE CALLER DUP4 MSTORE PUSH1 0x6 SWAP1 SWAP2 MSTORE DUP2 KECCAK256 PUSH1 0x1 ADD DUP1 SLOAD SWAP2 PUSH2 0xA35 DUP4 PUSH2 0x111B JUMP JUMPDEST SWAP2 SWAP1 POP SSTORE POP PUSH1 0x0 JUMPDEST CALLER PUSH1 0x0 SWAP1 DUP2 MSTORE PUSH1 0x6 PUSH1 0x20 MSTORE PUSH1 0x40 SWAP1 KECCAK256 SLOAD DUP2 LT ISZERO PUSH2 0xB52 JUMPI DUP4 DUP3 DUP2 MLOAD DUP2 LT PUSH2 0xA66 JUMPI PUSH2 0xA66 PUSH2 0x1098 JUMP JUMPDEST PUSH1 0x20 SWAP1 DUP2 MUL SWAP2 SWAP1 SWAP2 ADD DUP2 ADD MLOAD CALLER PUSH1 0x0 SWAP1 DUP2 MSTORE PUSH1 0x6 SWAP1 SWAP3 MSTORE PUSH1 0x40 SWAP1 SWAP2 KECCAK256 DUP1 SLOAD DUP4 SWAP1 DUP2 LT PUSH2 0xA94 JUMPI PUSH2 0xA94 PUSH2 0x1098 JUMP JUMPDEST SWAP1 PUSH1 0x0 MSTORE PUSH1 0x20 PUSH1 0x0 KECCAK256 ADD SLOAD EQ ISZERO PUSH2 0xB42 JUMPI CALLER PUSH1 0x0 SWAP1 DUP2 MSTORE PUSH1 0x6 PUSH1 0x20 MSTORE PUSH1 0x40 SWAP1 KECCAK256 DUP1 SLOAD PUSH2 0xAC2 SWAP1 PUSH1 0x1 SWAP1 PUSH2 0x1132 JUMP JUMPDEST DUP2 SLOAD DUP2 LT PUSH2 0xAD2 JUMPI PUSH2 0xAD2 PUSH2 0x1098 JUMP JUMPDEST PUSH1 0x0 SWAP2 DUP3 MSTORE PUSH1 0x20 DUP1 DUP4 KECCAK256 SWAP1 SWAP2 ADD SLOAD CALLER DUP4 MSTORE PUSH1 0x6 SWAP1 SWAP2 MSTORE PUSH1 0x40 SWAP1 SWAP2 KECCAK256 DUP1 SLOAD DUP4 SWAP1 DUP2 LT PUSH2 0xAFF JUMPI PUSH2 0xAFF PUSH2 0x1098 JUMP JUMPDEST PUSH1 0x0 SWAP2 DUP3 MSTORE PUSH1 0x20 DUP1 DUP4 KECCAK256 SWAP1 SWAP2 ADD SWAP3 SWAP1 SWAP3 SSTORE CALLER DUP2 MSTORE PUSH1 0x6 SWAP1 SWAP2 MSTORE PUSH1 0x40 SWAP1 KECCAK256 DUP1 SLOAD DUP1 PUSH2 0xB2B JUMPI PUSH2 0xB2B PUSH2 0x1149 JUMP JUMPDEST PUSH1 0x1 SWAP1 SUB DUP2 DUP2 SWAP1 PUSH1 0x0 MSTORE PUSH1 0x20 PUSH1 0x0 KECCAK256 ADD PUSH1 0x0 SWAP1 SSTORE SWAP1 SSTORE JUMPDEST PUSH2 0xB4B DUP2 PUSH2 0x10CB JUMP JUMPDEST SWAP1 POP PUSH2 0xA3D JUMP JUMPDEST POP PUSH1 0x3 SLOAD DUP4 MLOAD PUSH1 0x1 PUSH1 0x1 PUSH1 0xA0 SHL SUB SWAP1 SWAP2 AND SWAP1 PUSH4 0x23B872DD SWAP1 ADDRESS SWAP1 CALLER SWAP1 DUP8 SWAP1 DUP7 SWAP1 DUP2 LT PUSH2 0xB80 JUMPI PUSH2 0xB80 PUSH2 0x1098 JUMP JUMPDEST PUSH1 0x20 SWAP1 DUP2 MUL SWAP2 SWAP1 SWAP2 ADD ADD MLOAD PUSH1 0x40 MLOAD PUSH1 0x1 PUSH1 0x1 PUSH1 0xE0 SHL SUB NOT PUSH1 0xE0 DUP7 SWAP1 SHL AND DUP2 MSTORE PUSH1 0x1 PUSH1 0x1 PUSH1 0xA0 SHL SUB SWAP4 DUP5 AND PUSH1 0x4 DUP3 ADD MSTORE SWAP3 SWAP1 SWAP2 AND PUSH1 0x24 DUP4 ADD MSTORE PUSH1 0x44 DUP3 ADD MSTORE PUSH1 0x64 ADD PUSH1 0x0 PUSH1 0x40 MLOAD DUP1 DUP4 SUB DUP2 PUSH1 0x0 DUP8 DUP1 EXTCODESIZE ISZERO DUP1 ISZERO PUSH2 0xBDA JUMPI PUSH1 0x0 DUP1 REVERT JUMPDEST POP GAS CALL ISZERO DUP1 ISZERO PUSH2 0xBEE JUMPI RETURNDATASIZE PUSH1 0x0 DUP1 RETURNDATACOPY RETURNDATASIZE PUSH1 0x0 REVERT JUMPDEST POP POP POP POP DUP1 PUSH2 0xBFC SWAP1 PUSH2 0x10CB JUMP JUMPDEST SWAP1 POP PUSH2 0x91D JUMP JUMPDEST POP POP CALLER PUSH1 0x0 SWAP1 DUP2 MSTORE PUSH1 0x6 PUSH1 0x20 MSTORE PUSH1 0x40 SWAP1 KECCAK256 TIMESTAMP PUSH1 0x2 SWAP1 SWAP2 ADD SSTORE POP PUSH1 0x1 DUP1 SSTORE JUMP JUMPDEST PUSH1 0x0 SLOAD PUSH1 0x1 PUSH1 0x1 PUSH1 0xA0 SHL SUB AND CALLER EQ PUSH2 0xC4C JUMPI PUSH1 0x40 MLOAD PUSH3 0x461BCD PUSH1 0xE5 SHL DUP2 MSTORE PUSH1 0x4 ADD PUSH2 0x299 SWAP1 PUSH2 0x10E6 JUMP JUMPDEST PUSH1 0x1 PUSH1 0x1 PUSH1 0xA0 SHL SUB DUP2 AND PUSH2 0xCB1 JUMPI PUSH1 0x40 MLOAD PUSH3 0x461BCD PUSH1 0xE5 SHL DUP2 MSTORE PUSH1 0x20 PUSH1 0x4 DUP3 ADD MSTORE PUSH1 0x26 PUSH1 0x24 DUP3 ADD MSTORE PUSH32 0x4F776E61626C653A206E6577206F776E657220697320746865207A65726F2061 PUSH1 0x44 DUP3 ADD MSTORE PUSH6 0x646472657373 PUSH1 0xD0 SHL PUSH1 0x64 DUP3 ADD MSTORE PUSH1 0x84 ADD PUSH2 0x299 JUMP JUMPDEST PUSH1 0x0 DUP1 SLOAD PUSH1 0x40 MLOAD PUSH1 0x1 PUSH1 0x1 PUSH1 0xA0 SHL SUB DUP1 DUP6 AND SWAP4 SWAP3 AND SWAP2 PUSH32 0x8BE0079C531659141344CD1FD0A4F28419497F9722A3DAAFE3B4186F6B6457E0 SWAP2 LOG3 PUSH1 0x0 DUP1 SLOAD PUSH1 0x1 PUSH1 0x1 PUSH1 0xA0 SHL SUB NOT AND PUSH1 0x1 PUSH1 0x1 PUSH1 0xA0 SHL SUB SWAP3 SWAP1 SWAP3 AND SWAP2 SWAP1 SWAP2 OR SWAP1 SSTORE JUMP JUMPDEST PUSH1 0x1 PUSH1 0x1 PUSH1 0xA0 SHL SUB DUP2 AND PUSH1 0x0 SWAP1 DUP2 MSTORE PUSH1 0x6 PUSH1 0x20 SWAP1 DUP2 MSTORE PUSH1 0x40 SWAP2 DUP3 SWAP1 KECCAK256 DUP1 SLOAD DUP4 MLOAD DUP2 DUP5 MUL DUP2 ADD DUP5 ADD SWAP1 SWAP5 MSTORE DUP1 DUP5 MSTORE PUSH1 0x60 SWAP4 SWAP3 DUP4 ADD DUP3 DUP3 DUP1 ISZERO PUSH2 0xD6C JUMPI PUSH1 0x20 MUL DUP3 ADD SWAP2 SWAP1 PUSH1 0x0 MSTORE PUSH1 0x20 PUSH1 0x0 KECCAK256 SWAP1 JUMPDEST DUP2 SLOAD DUP2 MSTORE PUSH1 0x20 ADD SWAP1 PUSH1 0x1 ADD SWAP1 DUP1 DUP4 GT PUSH2 0xD58 JUMPI JUMPDEST POP POP POP POP POP SWAP1 POP SWAP2 SWAP1 POP JUMP JUMPDEST PUSH1 0x4 SLOAD CALLER PUSH1 0x0 SWAP1 DUP2 MSTORE PUSH1 0x6 PUSH1 0x20 MSTORE PUSH1 0x40 DUP1 DUP3 KECCAK256 PUSH1 0x1 ADD SLOAD PUSH1 0x1 PUSH1 0x1 PUSH1 0xA0 SHL SUB DUP6 AND DUP4 MSTORE SWAP1 DUP3 KECCAK256 PUSH1 0x2 ADD SLOAD SWAP2 SWAP3 PUSH2 0xE10 SWAP3 SWAP1 SWAP2 SWAP1 PUSH2 0xDB5 SWAP1 TIMESTAMP PUSH2 0x1132 JUMP JUMPDEST PUSH2 0xDBF SWAP2 SWAP1 PUSH2 0x115F JUMP JUMPDEST PUSH2 0xDC9 SWAP2 SWAP1 PUSH2 0x115F JUMP JUMPDEST PUSH2 0xDD3 SWAP2 SWAP1 PUSH2 0x117E JUMP JUMPDEST SWAP3 SWAP2 POP POP JUMP JUMPDEST PUSH1 0x1 PUSH1 0x1 PUSH1 0xA0 SHL SUB DUP2 AND PUSH1 0x0 SWAP1 DUP2 MSTORE PUSH1 0x6 PUSH1 0x20 MSTORE PUSH1 0x40 DUP2 KECCAK256 PUSH1 0x1 ADD SLOAD PUSH2 0xE41 JUMPI PUSH1 0x40 MLOAD PUSH3 0x461BCD PUSH1 0xE5 SHL DUP2 MSTORE PUSH1 0x20 PUSH1 0x4 DUP3 ADD MSTORE PUSH1 0x19 PUSH1 0x24 DUP3 ADD MSTORE PUSH32 0x5573657220686173206E6F20746F6B656E73207374616B656400000000000000 PUSH1 0x44 DUP3 ADD MSTORE PUSH1 0x64 ADD PUSH2 0x299 JUMP JUMPDEST PUSH1 0x0 PUSH2 0xE4C DUP4 PUSH2 0xD78 JUMP JUMPDEST PUSH1 0x1 PUSH1 0x1 PUSH1 0xA0 SHL SUB DUP5 AND PUSH1 0x0 SWAP1 DUP2 MSTORE PUSH1 0x6 PUSH1 0x20 MSTORE PUSH1 0x40 SWAP1 KECCAK256 PUSH1 0x3 ADD SLOAD PUSH2 0xE72 SWAP2 SWAP1 PUSH2 0x1080 JUMP JUMPDEST SWAP4 SWAP3 POP POP POP JUMP JUMPDEST PUSH4 0x4E487B71 PUSH1 0xE0 SHL PUSH1 0x0 MSTORE PUSH1 0x41 PUSH1 0x4 MSTORE PUSH1 0x24 PUSH1 0x0 REVERT JUMPDEST PUSH1 0x0 PUSH1 0x20 DUP1 DUP4 DUP6 SUB SLT ISZERO PUSH2 0xEA2 JUMPI PUSH1 0x0 DUP1 REVERT JUMPDEST DUP3 CALLDATALOAD PUSH8 0xFFFFFFFFFFFFFFFF DUP1 DUP3 GT ISZERO PUSH2 0xEBA JUMPI PUSH1 0x0 DUP1 REVERT JUMPDEST DUP2 DUP6 ADD SWAP2 POP DUP6 PUSH1 0x1F DUP4 ADD SLT PUSH2 0xECE JUMPI PUSH1 0x0 DUP1 REVERT JUMPDEST DUP2 CALLDATALOAD DUP2 DUP2 GT ISZERO PUSH2 0xEE0 JUMPI PUSH2 0xEE0 PUSH2 0xE79 JUMP JUMPDEST DUP1 PUSH1 0x5 SHL PUSH1 0x40 MLOAD PUSH1 0x1F NOT PUSH1 0x3F DUP4 ADD AND DUP2 ADD DUP2 DUP2 LT DUP6 DUP3 GT OR ISZERO PUSH2 0xF05 JUMPI PUSH2 0xF05 PUSH2 0xE79 JUMP JUMPDEST PUSH1 0x40 MSTORE SWAP2 DUP3 MSTORE DUP5 DUP3 ADD SWAP3 POP DUP4 DUP2 ADD DUP6 ADD SWAP2 DUP9 DUP4 GT ISZERO PUSH2 0xF23 JUMPI PUSH1 0x0 DUP1 REVERT JUMPDEST SWAP4 DUP6 ADD SWAP4 JUMPDEST DUP3 DUP6 LT ISZERO PUSH2 0xF41 JUMPI DUP5 CALLDATALOAD DUP5 MSTORE SWAP4 DUP6 ADD SWAP4 SWAP3 DUP6 ADD SWAP3 PUSH2 0xF28 JUMP JUMPDEST SWAP9 SWAP8 POP POP POP POP POP POP POP POP JUMP JUMPDEST PUSH1 0x0 PUSH1 0x20 DUP3 DUP5 SUB SLT ISZERO PUSH2 0xF5F JUMPI PUSH1 0x0 DUP1 REVERT JUMPDEST DUP2 CALLDATALOAD DUP1 ISZERO ISZERO DUP2 EQ PUSH2 0xE72 JUMPI PUSH1 0x0 DUP1 REVERT JUMPDEST PUSH1 0x1 PUSH1 0x1 PUSH1 0xA0 SHL SUB DUP2 AND DUP2 EQ PUSH2 0xF84 JUMPI PUSH1 0x0 DUP1 REVERT JUMPDEST POP JUMP JUMPDEST PUSH1 0x0 PUSH1 0x20 DUP3 DUP5 SUB SLT ISZERO PUSH2 0xF99 JUMPI PUSH1 0x0 DUP1 REVERT JUMPDEST DUP2 CALLDATALOAD PUSH2 0xE72 DUP2 PUSH2 0xF6F JUMP JUMPDEST PUSH1 0x0 DUP2 MLOAD DUP1 DUP5 MSTORE PUSH1 0x20 DUP1 DUP6 ADD SWAP5 POP DUP1 DUP5 ADD PUSH1 0x0 JUMPDEST DUP4 DUP2 LT ISZERO PUSH2 0xFD4 JUMPI DUP2 MLOAD DUP8 MSTORE SWAP6 DUP3 ADD SWAP6 SWAP1 DUP3 ADD SWAP1 PUSH1 0x1 ADD PUSH2 0xFB8 JUMP JUMPDEST POP SWAP5 SWAP6 SWAP5 POP POP POP POP POP JUMP JUMPDEST DUP4 DUP2 MSTORE DUP3 PUSH1 0x20 DUP3 ADD MSTORE PUSH1 0x60 PUSH1 0x40 DUP3 ADD MSTORE PUSH1 0x0 PUSH2 0xFFE PUSH1 0x60 DUP4 ADD DUP5 PUSH2 0xFA4 JUMP JUMPDEST SWAP6 SWAP5 POP POP POP POP POP JUMP JUMPDEST PUSH1 0x0 PUSH1 0x20 DUP3 DUP5 SUB SLT ISZERO PUSH2 0x1019 JUMPI PUSH1 0x0 DUP1 REVERT JUMPDEST POP CALLDATALOAD SWAP2 SWAP1 POP JUMP JUMPDEST PUSH1 0x20 DUP2 MSTORE PUSH1 0x0 PUSH2 0xE72 PUSH1 0x20 DUP4 ADD DUP5 PUSH2 0xFA4 JUMP JUMPDEST PUSH1 0x20 DUP1 DUP3 MSTORE PUSH1 0x1F SWAP1 DUP3 ADD MSTORE PUSH32 0x5265656E7472616E637947756172643A207265656E7472616E742063616C6C00 PUSH1 0x40 DUP3 ADD MSTORE PUSH1 0x60 ADD SWAP1 JUMP JUMPDEST PUSH4 0x4E487B71 PUSH1 0xE0 SHL PUSH1 0x0 MSTORE PUSH1 0x11 PUSH1 0x4 MSTORE PUSH1 0x24 PUSH1 0x0 REVERT JUMPDEST PUSH1 0x0 DUP3 NOT DUP3 GT ISZERO PUSH2 0x1093 JUMPI PUSH2 0x1093 PUSH2 0x106A JUMP JUMPDEST POP ADD SWAP1 JUMP JUMPDEST PUSH4 0x4E487B71 PUSH1 0xE0 SHL PUSH1 0x0 MSTORE PUSH1 0x32 PUSH1 0x4 MSTORE PUSH1 0x24 PUSH1 0x0 REVERT JUMPDEST PUSH1 0x0 PUSH1 0x20 DUP3 DUP5 SUB SLT ISZERO PUSH2 0x10C0 JUMPI PUSH1 0x0 DUP1 REVERT JUMPDEST DUP2 MLOAD PUSH2 0xE72 DUP2 PUSH2 0xF6F JUMP JUMPDEST PUSH1 0x0 PUSH1 0x0 NOT DUP3 EQ ISZERO PUSH2 0x10DF JUMPI PUSH2 0x10DF PUSH2 0x106A JUMP JUMPDEST POP PUSH1 0x1 ADD SWAP1 JUMP JUMPDEST PUSH1 0x20 DUP1 DUP3 MSTORE DUP2 DUP2 ADD MSTORE PUSH32 0x4F776E61626C653A2063616C6C6572206973206E6F7420746865206F776E6572 PUSH1 0x40 DUP3 ADD MSTORE PUSH1 0x60 ADD SWAP1 JUMP JUMPDEST PUSH1 0x0 DUP2 PUSH2 0x112A JUMPI PUSH2 0x112A PUSH2 0x106A JUMP JUMPDEST POP PUSH1 0x0 NOT ADD SWAP1 JUMP JUMPDEST PUSH1 0x0 DUP3 DUP3 LT ISZERO PUSH2 0x1144 JUMPI PUSH2 0x1144 PUSH2 0x106A JUMP JUMPDEST POP SUB SWAP1 JUMP JUMPDEST PUSH4 0x4E487B71 PUSH1 0xE0 SHL PUSH1 0x0 MSTORE PUSH1 0x31 PUSH1 0x4 MSTORE PUSH1 0x24 PUSH1 0x0 REVERT JUMPDEST PUSH1 0x0 DUP2 PUSH1 0x0 NOT DIV DUP4 GT DUP3 ISZERO ISZERO AND ISZERO PUSH2 0x1179 JUMPI PUSH2 0x1179 PUSH2 0x106A JUMP JUMPDEST POP MUL SWAP1 JUMP JUMPDEST PUSH1 0x0 DUP3 PUSH2 0x119B JUMPI PUSH4 0x4E487B71 PUSH1 0xE0 SHL PUSH1 0x0 MSTORE PUSH1 0x12 PUSH1 0x4 MSTORE PUSH1 0x24 PUSH1 0x0 REVERT JUMPDEST POP DIV SWAP1 JUMP INVALID LOG2 PUSH5 0x6970667358 0x22 SLT KECCAK256 0xF6 0xBA 0xDA PUSH21 0xFD31C80B7CDFDE104C8578E85FA32B96B6CC9A874E PUSH8 0xBC14B6F27E96473 PUSH16 0x6C634300080900330000000000000000 ",
  "sha1": "83f88577e112a447e73325841fea09d9e116d5ab",
  "source": "// SPDX-License-Identifier: MIT\npragma solidity >=0.8.4 <0.9.0;\n\nimport \"@openzeppelin/contracts/token/ERC20/IERC20.sol\";\nimport \"@openzeppelin/contracts/token/ERC20/utils/SafeERC20.sol\";\nimport \"@openzeppelin/contracts/token/ERC721/IERC721.sol\";\nimport \"@openzeppelin/contracts/token/ERC721/utils/ERC721Holder.sol\";\nimport \"@openzeppelin/contracts/access/Ownable.sol\";\nimport \"@openzeppelin/contracts/security/ReentrancyGuard.sol\";\n\ninterface IViseCoin is IERC20 {\n    function mint(address to, uint256 amount) external;\n}\n\ncontract ViseCoinStaking is Ownable, ReentrancyGuard {\n    using SafeERC20 for IERC20;\n\n    // Interfaces for ERC20 and ERC721\n    IViseCoin public ViseCoin;\n    IERC721 public LadyLilethCollection;\n\n    // Staker info\n    struct Staker {\n        uint256[] tokenIdsStaked;\n        uint256 amountStaked;\n        uint256 timeOfLastUpdate;\n        uint256 unclaimedRewards;\n    }\n\n    uint256 private rewardsPerHour = 100000;\n\n    bool public paused = false;\n\n    mapping(address => Staker) public stakers;\n    mapping(uint256 => address) public stakerAddress;\n\n    constructor(IERC721 _LadyLilethCollection, IViseCoin _ViseCoin) {\n        LadyLilethCollection = _LadyLilethCollection;\n        ViseCoin = _ViseCoin;\n    }\n\n\n    function stake(uint256[] memory _tokenIds) external nonReentrant {\n        require(!paused, \"The contract has been paused!\");\n        if (stakers[msg.sender].amountStaked > 0) {\n            uint256 rewards = calculateRewards(msg.sender);\n            stakers[msg.sender].unclaimedRewards += rewards;\n        }\n\n        for (uint256 i; i < _tokenIds.length; ++i) {\n            require( LadyLilethCollection.ownerOf(_tokenIds[i]) == msg.sender, \"Can't stake tokens you don't own!\" );\n            LadyLilethCollection.transferFrom(msg.sender, address(this), _tokenIds[i]);\n            stakers[msg.sender].tokenIdsStaked.push(_tokenIds[i]);\n            stakers[msg.sender].amountStaked++;\n            stakerAddress[_tokenIds[i]] = msg.sender;\n        }\n        \n        stakers[msg.sender].timeOfLastUpdate = block.timestamp;\n    }\n\n    function withdraw(uint256[] memory _tokenIds) external nonReentrant {\n        require( stakers[msg.sender].amountStaked > 0, \"You have no tokens staked\" );\n        uint256 rewards = calculateRewards(msg.sender);\n        stakers[msg.sender].unclaimedRewards += rewards;\n\n        for (uint256 i; i < _tokenIds.length; ++i) {\n            require( stakerAddress[_tokenIds[i]] == msg.sender, \"You can only wihtdraw your own tokens!\" );\n            stakerAddress[_tokenIds[i]] = address(0);\n            stakers[msg.sender].amountStaked--;\n\n            for ( uint256 j; j < stakers[msg.sender].tokenIdsStaked.length; ++j ) {\n                if (stakers[msg.sender].tokenIdsStaked[j] == _tokenIds[i]) {\n                    stakers[msg.sender].tokenIdsStaked[j] = stakers[msg.sender].tokenIdsStaked[ stakers[msg.sender].tokenIdsStaked.length - 1 ];\n                    stakers[msg.sender].tokenIdsStaked.pop();\n                }\n            }\n\n            LadyLilethCollection.transferFrom(address(this), msg.sender, _tokenIds[i]);\n        }\n\n        stakers[msg.sender].timeOfLastUpdate = block.timestamp;\n    }\n\n    /*\n    *   Release all reward tokens\n    */\n    function claimRewards() external nonReentrant {\n        uint256 rewards = calculateRewards(msg.sender) + stakers[msg.sender].unclaimedRewards;\n        require(rewards > 0, \"You have no rewards to claim\");\n        stakers[msg.sender].timeOfLastUpdate = block.timestamp;\n        stakers[msg.sender].unclaimedRewards = 0;\n        ViseCoin.mint(msg.sender, rewards);\n    }\n\n\n    /*\n    *   VIEW FUNCTIONS\n    */\n\n    /*\n    *   Returns the information of staked users\n    *   @params Address of accont ot query\n    *   @return Deposit address\n    *   @return Amount of tokens staked\n    *   @return Token ID's staked\n    */\n    function userStakeInfo(address _user) public view returns ( uint256 _amountStaked, uint256 _availableRewards, uint256[] memory _tokenIdsStaked ) {\n        return (\n            stakers[_user].amountStaked,\n            availableRewards(_user),\n            stakers[_user].tokenIdsStaked\n        );\n    }\n\n    function tokenIdsStaked(address _user) public view returns ( uint256[] memory _tokenIdsStaked ) {\n        return stakers[_user].tokenIdsStaked;\n    }\n\n\n    /*\n    *   INTERNAL FUNCTIONS\n    */\n\n    /*\n    *   Returns ERC20 rewards available for claim. Currently accrued + calculated since last call \n    *   @params Address of accont ot query\n    *   @return Amount in wei\n    */\n    function availableRewards(address _user) internal view returns (uint256) {\n        require(stakers[_user].amountStaked > 0, \"User has no tokens staked\");\n        uint256 _rewards = stakers[_user].unclaimedRewards +\n            calculateRewards(_user);\n        return _rewards;\n    }\n\n    /*\n    *   If user has NFT's staked, calculate the rewards accumulated per hour since last update\n    *   @params Address of accont ot query\n    *   @return Amount in wei\n    */\n    function calculateRewards(address _staker) internal view returns (uint256 _rewards) {\n        return (((\n            ((block.timestamp - stakers[_staker].timeOfLastUpdate) *\n                stakers[msg.sender].amountStaked)\n        ) * rewardsPerHour) / 3600);\n    }\n\n    function setPaused(bool _state) public onlyOwner {\n        paused = _state;\n    }\n\n}\n\n",
  "sourcePath": "contracts/ViseCoinStaking.sol",
  "type": "contract"
}